:060000000A128A11F82F1C
:100E5C00831603130711F93092000F30831203131A
:100E6C0095003F3097051708F0390C389700033080
:100E7C00920412150800F401F501701C462F472F3F
:100E8C004D2F7208F4070318F50A7308F5070130A3
:100E9C000310F20DF30DFF3E031D4E2F0130031016
:100EAC00F10CF00CFF3E031D552F70087104031D4F
:100EBC00602F612F432F7508F1007408F0000800B3
:100ECC00FB01FC017608770403196D2F6E2FA52FFB
:100EDC00FD01FD0A7C2F01300310F60DF70DFF3ECE
:100EEC00031D722F0130FA007A08FD07F71F7F2FC0
:100EFC00802F712F01300310FB0DFC0DFF3E031DE5
:100F0C00812F77087902031D8D2F76087802031C38
:100F1C00902F912F982F7608F8027708031CF9036D
:100F2C00F9027B1401300310F70CF60CFF3E031D85
:100F3C00992F0130FD02031DA42FA52F802F7C08B3
:100F4C00F7007B08F6000800831603139F139F120B
:100F5C001F12FF3085000A128A112E270A128A11DD
:100F6C00C330831203139F051F149F149F18BF2FA8
:100F7C00C02FBC2F1E08A300831603131E08831258
:100F8C000313A200FF30F6000330F7002308F10032
:100F9C002208F000FF30F2000030F3000A128A1130
:100FAC0041270A128A117108F9007008F8000A1218
:100FBC008A1166270A128A11760883120313A0007D
:100FCC002008A40024089500343083120313A100D8
:100FDC00F130A000A00BF02FA10BF02FB62F0A12AE
:100FEC008A11002883120313A501A60183010A129A
:040FFC008A11AA2F7D
:08400000FF3FFF3FFF3FFF3FC0
:04400E00D420FF3F7C
:00000001FF
